:020000041000EA
:1000000000000220492500101D2100102D210010A4
:10001000892500108B2500108D25001000000000A0
:100020000000000000000000000000008F2500100C
:100030009125001000000000932500109525001068
:10004000992500109B2500109D2500109F2500106C
:10005000A1250010A3250010A5250010A72500103C
:10006000A9250010AB250010AD250010AF2500100C
:10007000B1250010B3250010B5250010B7250010DC
:10008000B9250010BB250010BD250010BF250010AC
:10009000C1250010C3250010C5250010C72500107C
:1000A000C5230010D3230010CD250010CF2500104C
:1000B000D1250010D3250010D5250010D72500101C
:1000C000D9250010DB250010DD250010DF250010EC
:1000D000E1250010E3250010E5250010E7250010BC
:1000E000E9250010EB250010ED250010EF2500108C
:1000F000F1250010F3250010F5250010F72500105C
:10010000F9250010FB250010FD250010FF2500102B
:1001100001260010032600100526001007260010F7
:10012000092600100B2600100D2600100F260010C7
:100130001126001013260010152600101726001097
:10014000192600101B2600101D2600101F26001067
:100150002126001023260010252600102726001037
:10016000292600102B2600102D2600102F26001007
:1001700031260010332600103526001037260010D7
:10018000392600103B2600103D2600103F260010A7
:100190004126001043260010452600104726001077
:1001A000492600104B2600104D2600104F26001047
:1001B0005126001053260010552600105726001017
:1001C000592600105B2600105D2600105F260010E7
:1001D00010B5054C237833B9044B13B10448AFF381
:1001E00000800123237010BD000A002000000000E1
:1001F00030C5001008B5034B1BB103490348AFF3EA
:10020000008008BD00000000040A002030C5001076
:1002100080B483B000AF0346FB71FB7903F01F038A
:10022000012202FA03F1064A97F907305B0942F806
:10023000231000BF0C37BD465DF8047B704700BF3C
:1002400000E100E080B483B000AF0346FB71FB79AE
:1002500003F01F03012202FA03F1064A97F907305F
:100260005B09603342F8231000BF0C37BD465DF8D0
:10027000047B704700E100E080B483B000AF034628
:100280003960FB7197F90730002B0BDA3B68DAB263
:100290000C49FB7903F00F03043B5201D2B20B442B
:1002A0001A7609E03B68DAB2074997F9073052013C
:1002B000D2B20B4483F8002300BF0C37BD465DF873
:1002C000047B704700ED00E000E100E080B400AF87
:1002D000BFF34F8F00BF064BDB6803F4E0620449B5
:1002E000044B1343CB60BFF34F8F00BFFEE700BF4B
:1002F00000ED00E00400FA0580B500AF4FF4801176
:10030000034802F069FE034B01221A6000BF80BD62
:10031000008000401C0A002080B584B000AF194B5B
:100320003B604FF480137B6000233B7201237B72A0
:100330000123BB723B46184602F056FDF860FB688D
:10034000002B00D000BE1820FFF77CFF00211820F2
:10035000FFF792FF0C49182002F016FD3B460021E2
:10036000184602F033FEF860FB68002B00D000BE98
:100370004FF48011034802F02BFE00BF1037BD463A
:1003800080BD00BF00800040F902001080B500AFC2
:10039000054B01221A60054803F006FF04210448BA
:1003A00002F012FE00BF80BD200A002000000140C4
:1003B0000004084080B588B000AF234B3B610423A4
:1003C0007B6101233B7600237B760023BB7607F11C
:1003D0001003184602F008FDF861FB69002B00D0FD
:1003E00000BE0421184802F0BBFD0520FFF72AFFDC
:1003F00003210520FFF740FF0520FFF709FF134900
:10040000052002F0C1FC0023BB710323FB71012313
:100410007B710F4BBB600023FB6030233B713B1DA6
:10042000002219460B4803F0E3FDF861FB69002B3D
:1004300000D000BE074803F0B9FE064803F0B2FE44
:1004400000BF2037BD4680BD000408408D0300106A
:10045000B0710B000000014080B5BCB000AFD448C3
:1004600004F084FF42F2107002F0DEFAD14BC7F8BC
:10047000D4304FF40073C7F8D830012387F8DC304C
:10048000002387F8DD30012387F8DE3007F1D4033D
:10049000184602F0A9FCC7F8EC00D7F8EC30002BA6
:1004A00003D0C54804F062FF00BED7F8D430D7F8B7
:1004B000D8201146184602F06DFDC04BC7F8C83071
:1004C0004FF40023C7F8CC30012387F8D030002345
:1004D00087F8D130012387F8D23007F1C8031846D6
:1004E00002F082FCC7F8EC00D7F8EC30002B03D008
:1004F000B14804F03BFF00BED7F8C830D7F8CC2095
:100500001146184602F02CFDAC4BC7F8BC304FF436
:100510008023C7F8C030012387F8C430002387F850
:10052000C530012387F8C63007F1BC03184602F036
:100530005BFCC7F8EC00D7F8EC30002B00D000BE15
:10054000D7F8BC30D7F8C0201146184602F008FD95
:1005500007F1E0030021184600F0C8FB034687F8C6
:10056000EB3097F9EB30002B18D0954804F0FEFEE5
:10057000D7F8C830D7F8CC201146184602F0F0FC66
:10058000D7F8BC30D7F8C0201146184602F002FD5B
:100590008C4802F049FAFFF799FE00BE07F1E0032C
:1005A000184600F0E8FB034687F8EB3097F9EB308C
:1005B000002B18D0844804F0D9FED7F8C830D7F8FB
:1005C000CC201146184602F0CBFCD7F8BC30D7F847
:1005D000C0201146184602F0DDFC7A4802F024FAE9
:1005E000FFF774FE00BE07F1BB0207F1E0031146FE
:1005F000184600F0F1FB07F19803184600F009FCDB
:10060000022387F898300F2387F8A930012387F851
:10061000AC30012387F8AD30012387F89A300223EC
:1006200087F89D30022387F89E30032387F8A03097
:1006300007F1980207F1E0031146184600F039FD72
:10064000034687F8EB3097F9EB30002B18D05F4862
:1006500004F08CFED7F8C830D7F8CC2011461846E5
:1006600002F07EFCD7F8BC30D7F8C02011461846FF
:1006700002F090FC534802F0D7F9FFF727FE00BEC6
:1006800007F1780207F1E0031146184600F01DFC5F
:10069000034687F8EB3097F9EB30002B18D04C4825
:1006A00004F064FED7F8C830D7F8CC2011461846BD
:1006B00002F056FCD7F8BC30D7F8C02011461846D7
:1006C00002F068FC3F4802F0AFF9FFF7FFFD00BE03
:1006D000FFF722FEFFF76EFE00F02CFF3D4804F00E
:1006E00045FE3D4B1B68002B40D03B4B00221A605F
:1006F0003A4607F1E0031146184600F057FE03465C
:1007000087F8EB3097F9EB30002B00D000BE3B466A
:10071000184601F021FAC7F8E400D7F8E430B3F145
:10072000FF3F1ED0D7F8E430002B03D12B4804F054
:100730001DFE16E0D7F8E430012B03D1284804F061
:1007400015FE0EE0D7F8E430022B03D1254804F063
:100750000DFE06E0D7F8E430032B02D1224804F066
:1007600005FE224B1B680133204A1360204B1B6897
:10077000002BB6D01E4B00221A601C4B1B68002BAE
:100780003AD1D7F8C830D7F8CC201146184602F035
:10079000E7FBD7F8BC30D7F8C0201146184602F066
:1007A000F9FB144802F040F9FFF790FD34E000BF78
:1007B0000CBC0010009000401CBC001000800040E9
:1007C00038BC0010C0C62D0054BC00106CBC00101A
:1007D00090BC0010B4BC00101C0A0020C8BC001063
:1007E000CCBC0010D4BC0010DCBC0010240A0020DB
:1007F000200A0020A0860100D7F8C830D7F8CC2006
:100800001146184602F0C6FBD7F8BC30D7F8C02016
:100810001146184602F0A4FB014B00221A6060E763
:10082000240A002080B483B000AF78603960044AA5
:100830003B68136000BF0C37BD465DF8047B704712
:10084000280A002080B483B000AF78603960044A81
:100850003B68136000BF0C37BD465DF8047B7047F2
:100860002C0A002080B590B000AFF8607A603B6041
:100870000B46FB723B68062B02D96FF017033FE073
:10088000FB7A87F8343007F1340301333A6879682A
:10089000184604F011FC1C4B7B61FB681B78C3F30A
:1008A0004603DBB2BB6107F13403FB613B680133F4
:1008B0003B6200237B620023BB620023FB62134B7D
:1008C0003B63134B4FF0FF321A6007F114031846D5
:1008D00002F008FCF863FB6B002B04D06FF00A03F6
:1008E0000EE030BF00BF0A4B1B68B3F1FF3FF8D0EA
:1008F000074B1B68002B02D06FF00A0300E00023B7
:1009000018464037BD4680BD00E001402508001074
:10091000280A002080B58EB000AFF8607A603B6096
:100920000B46FB721B4B7B61FB681B78C3F34603D2
:10093000DBB2BB6107F10B03FB6101233B627B6808
:100940007B623B68BB620023FB62134B3B63134B30
:100950004FF0FF321A6007F11403184602F0C2FB91
:1009600078637B6B002B04D06FF00A030EE030BF7E
:1009700000BF0A4B1B68B3F1FF3FF8D0074B1B6861
:10098000002B02D06FF00A0300E00023184638372E
:10099000BD4680BD00E0014025080010280A002067
:1009A00080B590B006AF78607B681B78C3F34603D0
:1009B000DBB2022B02D96FF014035CE001233B761B
:1009C00001233B7701237B7700237B760023BB76D3
:1009D0000023FB760023BB770023FB77012387F8F6
:1009E000203002AB07F1180207CA03C31A70244B68
:1009F000019300230093012300220121214802F0EA
:100A000021FD78627B6A002B02D06FF00A0332E08E
:100A10001D4BFB604FF000733B6101233B750023CE
:100A20007B750123BB754FF00071174802F098FAEF
:100A300007F10C03184602F0D7F978627B6A002BA5
:100A400002D06FF00A0316E008210E4802F030FED3
:100A500078627B6A002B02D06FF00A030BE0012161
:100A6000084802F02BFE78627B6A002B02D06FF000
:100A70000A0300E0002318462837BD4680BD00BFAA
:100A800040420F00006004400080004080B592B0FA
:100A900000AFF8607A603B600B46FB723B68062B48
:100AA00002D96FF0170358E0FB7A3B7500237B7582
:100AB00007F1140302333A687968184604F0FCFA27
:100AC000284B3B64284BFB6100237B6207F1140336
:100AD000BB6201233B630023FB6200237B63002393
:100AE0003B620023BB630023FB6307F11C03184632
:100AF00002F0FAFD78647B6C002B02D06FF00A03E1
:100B00002BE001237B6207F11403BB623B680233D5
:100B10003B630023FB6200237B6300233B620023D3
:100B2000BB630023FB634FF00071104802F032FA00
:100B300007F11C03184602F0D7FD78647B6C002B8C
:100B400002D06FF00A0308E00A2001F06DFF4FF0B9
:100B50000071064802F004FA002318464837BD46E3
:100B600080BD00BF450800100060044000800040C8
:100B700080B590B000AFF8607A603B600B46FB72C6
:100B8000FB7A3B7480237B74334B7B610023BB6116
:100B9000324BBB6307F110033B620123BB620023AE
:100BA0007B620023FB620023FB6100233B63002385
:100BB0007B6307F11403184602F096FDF863FB6BA4
:100BC000002B02D06FF00A0342E007F110033B62F2
:100BD0000223BB6200237B620023FB620023FB61D4
:100BE00000233B6300237B634FF000711C4802F03D
:100BF000D1F907F11403184602F076FDF863FB6B98
:100C0000002B02D06FF00A0322E000233B62002396
:100C1000BB627B687B623B68FB620123FB61002354
:100C20003B6300237B6307F11403184602F05CFD6D
:100C3000F863FB6B002B02D06FF00A0308E00A2078
:100C400001F0F2FE4FF00071054802F089F900232F
:100C500018464037BD4680BD00600440450800107E
:100C60000080004080B584B000AFF8607A603B60DF
:100C70000B46FB72FB681B7803F00103DBB2002B11
:100C800007D0F97A3B687A68F868FFF771FF034686
:100C900006E0F97A3B687A68F868FFF73BFE03469E
:100CA00018461037BD4680BD80B584B000AFF860EF
:100CB0007A603B600B46FB72FB681B7803F0010314
:100CC000DBB2002B07D0F97A3B687A68F868FFF747
:100CD000DDFE034606E0F97A3B687A68F868FFF7BC
:100CE000C1FD034618461037BD4680BD80B584B0AF
:100CF00000AF78600B46FB7097F90330002B02DAE7
:100D00006FF0140333E07A68137843F00103137033
:100D10007A6813786FF3470313707868FFF740FE23
:100D20000346FB7397F90F30002B02D097F90F3071
:100D30001DE007F10E02012302217868FFF792FF00
:100D40000346FB7397F90F30002B02D097F90F3051
:100D50000DE0BB7BDB08DBB203F00103DAB27B689A
:100D60009A70BB7BDB09DAB27B685A7000231846A5
:100D70001037BD4680BD80B584B000AF78607B6819
:100D80009B78DB005BB203F008035AB27B685B78A8
:100D9000DB015BB213435BB243F040035BB2DBB2F7
:100DA000BB7307F10E02012302217868FFF77CFF75
:100DB0000346FB7397F90F30002B02D097F90F30E1
:100DC00006E07B6800229A707B6800225A7000233C
:100DD00018461037BD4680BD80B584B000AF78603E
:100DE000396007F10E02012300217868FFF73AFF0E
:100DF0000346FB7397F90F30002B02D097F90F30A1
:100E000003E0BA7B3B681A70002318461037BD46D2
:100E100080BD80B485B000AF78607B6800221A7016
:100E20007B6800229A707B6800225A707B680022DF
:100E3000DA707B6800221A717B6807225A717B681E
:100E400003229A717B680422DA717B6800225A724D
:100E50007B6804221A727B6800229A727B680122E6
:100E6000DA727B6800225A737B6800229A737B686F
:100E70000022DA737B6800221A737B6800221A74DE
:100E80007B6800225A747B680022DA747B68002237
:100E90001A757B6800229A747B6800225A750023B9
:100EA000FB6008E07A68FB681344163308221A7066
:100EB000FB680133FB60FB68092BF3DD0023184658
:100EC0001437BD465DF8047B704780B588B000AF2D
:100ED0007860396007F11402062301217868FFF772
:100EE000C1FE0346FB7697F91B30002B02D097F921
:100EF0001B30DAE007F10C020523A5217868FFF723
:100F0000B1FE0346FB7697F91B30002B02D097F910
:100F10001B30CAE007F10B020123C1217868FFF7FB
:100F2000A1FE0346FB7697F91B30002B02D097F900
:100F30001B30BAE03B7D9B08DBB203F00103DAB261
:100F40003B689A703B7D1B09DBB203F00703DAB202
:100F50003B685A707B7DDB09DAB23B68DA707B7DD7
:100F600003F00303DAB23B681A707B7DDB08DBB267
:100F700003F00103DAB23B681A71BB7D1B09DAB2D8
:100F80003B685A71BB7D5B08DBB203F00703DAB242
:100F90003B689A71BB7D03F00103DAB23B689A7239
:100FA000FB7D5B09DAB23B68DA71FB7D5B08DBB283
:100FB00003F00103DAB23B685A72FB7D9B08DBB297
:100FC00003F00703DAB23B681A723B7EDB08DBB240
:100FD00003F00103DAB23B68DA723B7E03F00303ED
:100FE000DAB23B685A733B7E9B08DBB203F0010325
:100FF000DAB23B689A733B7E1B09DBB203F0030352
:10100000DAB23B68DA733B7E9B09DBB203F0010383
:10101000DAB23B681A733B7EDB09DAB23B681A74BA
:101020007B7E03F00F03DAB23B685A74FB7A9B08AD
:10103000DBB203F00103DAB23B68DA74FB7A5B08D7
:10104000DBB203F00103DAB23B681A75FB7A03F0F6
:101050000103DAB23B689A743B6800225A75002398
:10106000FB611EE007F10C02FB6913441A78FB696F
:101070005B0002F00F02D1B23A6813440A469A7537
:1010800007F10C02FB6913441A78FB695B0001331A
:101090001209D1B23A6813440A469A75FB690133C2
:1010A000FB61FB69042BDDDD002318462037BD46BC
:1010B00080BD80B588B000AF786039603B689B7CAC
:1010C0005BB203F001035AB23B685B7DDB005BB2AD
:1010D00003F008035BB213435BB2DBB2FB7207F1B0
:1010E0000B020123C1217868FFF7DEFD0346FB7682
:1010F00097F91B30002B02D097F91B3006E13B68B3
:101100005B781B015BB203F070035AB23B689B78BB
:101110009B005BB203F004035BB213435BB2DBB230
:101120003B753B681B785BB203F003035AB23B6824
:101130001B79DB005BB203F008035BB213435AB2C6
:101140003B68DB78DB015BB213435BB2DBB27B75E0
:101150003B685B791B015AB23B689B795B005BB2D1
:1011600003F00E035BB213435AB23B689B7A5BB247
:1011700003F001035BB213435BB2DBB2BB753B68A8
:101180005B7A5B005BB203F002035AB23B681B7AE6
:101190009B005BB203F01C035BB213435AB23B6883
:1011A000DB795B015BB213435BB2DBB2FB753B687F
:1011B0005B7B5BB203F003035AB23B689B7B9B00F3
:1011C0005BB203F004035BB213435AB23B68DB7BB0
:1011D0001B015BB203F030035BB213435AB23B68AE
:1011E0001B7B9B015BB203F040035BB213435AB21B
:1011F0003B681B7CDB015BB213435AB23B68DB7A72
:10120000DB005BB203F008035BB213435BB2DBB2FB
:101210003B763B685B7C03F00F03DBB27B7607F128
:101220001402062301217868FFF73EFD0346FB7692
:1012300097F91B30002B02D097F91B3066E0002392
:10124000FB611CE0FB695B003A6813449B7D5BB269
:1012500003F00F035AB2FB695B00013339680B449A
:101260009B7D1B015BB213435BB2D9B207F10C0249
:10127000FB6913440A461A70FB690133FB61FB6981
:10128000042BDFDD07F10C020523A5217868FFF7A9
:101290000BFD0346FB7697F91B30002B02D097F924
:1012A0001B3033E03B689B7C5BB203F001035AB216
:1012B0003B681B7D5B005BB203F002035BB2134330
:1012C0005AB23B68DB7C9B005BB203F004035BB269
:1012D00013435AB23B685B7DDB005BB203F008034B
:1012E0005BB213435BB2DBB2FB7207F10B0201236B
:1012F000C1217868FFF7D8FC0346FB7697F91B30CD
:10130000002B02D097F91B3000E00023184620374D
:10131000BD4680BD80B588B000AFF860B9607A6026
:101320003B603A6813469B0013445B001A467B6897
:1013300013440833DBB25B00FB76BB687B61BB6A9E
:101340005B00F97E7A69F868FFF78CFC0346FB7452
:1013500097F91330002B02D097F9133022E00023C5
:10136000FB611AE0FB695B007A6913441B78BB746C
:10137000FB695B0001337A691A44FB695B00796998
:101380000B4412781A70FB695B0001337A691344CD
:10139000BA7C1A70FB690133FB61BB6AFA699A4235
:1013A000E0D3002318462037BD4680BD80B584B009
:1013B00002AF786039603C23009300230022396833
:1013C0007868FFF7A7FF034618460837BD4680BD7B
:1013D00080B48DB000AFF860B9607A604FF0000360
:1013E000FB624FF00003BB624FF000037B620023FF
:1013F0003B6249E00023FB6140E03A6A13469B00F0
:1014000013445B001A46FB6913447B617B699B00B4
:10141000FA6813441B68BB61BB69002B02DABB6925
:101420005B42BB61FB690133BA6902FB03F307EE60
:10143000903AF8EEE77A97ED0B7A77EE277AC7EDD8
:101440000B7A3B6A0133BA6902FB03F307EE903A69
:10145000F8EEE77A97ED0A7A77EE277AC7ED0A7AFF
:10146000BB6907EE903AF8EEE77A97ED097A77EEE6
:10147000277AC7ED097AFB690133FB61FB69092B08
:10148000BBDD3B6A01333B623B6A052BB2DDD7ED26
:10149000097AF5EE407AF1EE10FA02D14FF07E5360
:1014A0007B62D7ED0B6A97ED097AC6EE877AB7EEC5
:1014B000007A77EEC77ABB68C3ED007AD7ED0A6A87
:1014C00097ED097AC6EE877AB7EE007A77EEC77A9B
:1014D0007B68C3ED007A00BF3437BD465DF8047BFE
:1014E000704780B485B000AF78600023FB6016E0E1
:1014F0007A68FB683C339B0013445B68B3F5967FC6
:1015000008DC7A68FB683C339B0013445B6813F586
:10151000967F01DA012306E0FB680133FB60FB687C
:101520003B2BE5DD002318461437BD465DF8047BF0
:101530007047000080B483B000AF00237B6010E0F0
:10154000144A7B689B0013444FF000021A60124A51
:101550007B689B0013444FF000021A607B680133E4
:101560007B607B683B2BEBDD00233B6007E00B4A95
:101570003B68002142F823103B6801333B603B6825
:10158000042BF4DD00BF00BF0C37BD465DF8047BC3
:10159000704700BF1C0E00200C0F0020FC0F002025
:1015A000B0B586B000AF78607B68694AC3F8E421C3
:1015B0007B68684AC3F8E82100237B61ACE07B6864
:1015C0001A687B695B001344B3F9003019467A68E6
:1015D0007B699B00134459605F4A7B699B001344FD
:1015E0001B68184609F010FE51A3D3E9002309F047
:1015F00063FE02460B4614461D467A687B699B00D3
:1016000013445B68184609F0EDFD4BA3D3E90023B2
:1016100009F052FE02460B462046294609F096FC88
:1016200002460B46104619460AF01EF903463B6176
:101630004A4A7B699B0013441B68184609F0E4FD85
:101640003FA3D3E9002309F037FE02460B461446B8
:101650001D46386909F0D8FD3BA3D3E9002309F002
:101660002BFE02460B462046294609F06FFC024637
:101670000B46104619460AF0F7F80346FB60364A57
:101680007B699B0013443A691A60344A7B699B006A
:101690001344FA681A6097ED047AD7ED037A77EE6F
:1016A000677AFDEEE77A17EE901A7A687B693C3329
:1016B0009B00134459607A687B699B0013445A6805
:1016C0007B68D3F8E4319A4207DD7A687B699B0036
:1016D00013445A687B68C3F8E4217A687B693C3319
:1016E0009B0013445A687B68D3F8E8319A4210DDB6
:1016F0007A687B693C339B0013445A687B68C3F863
:10170000E8217A687B699B0013445A687B68C3F8B8
:10171000EC217B6901337B617B693B2B7FF74FAF0A
:1017200000BF00BF1837BD46B0BD00BFAFF300809B
:10173000989999999999B93FCDCCCCCCCCCCEC3F28
:10174000666666666666EE3F9A9999999999A93F89
:10175000011F0AFA816967FF1C0E00200C0F002090
:1017600080B584B000AF7860264B1B68322B20D147
:101770000023BB6017E0BA6813469B0013449B002C
:101780001A46214BD018BB685A1C13469B001344C1
:101790009B001A461C4B13441422194603F08CFC80
:1017A000BB680133BB60BB68302BE4DD174BFB60CB
:1017B0000CE0144B1A68531C12490B6013469B0033
:1017C00013449B001A46104B1344FB607B6803F1E3
:1017D000F400F968FB6804331A46FFF7F9FD7B68EB
:1017E000D3F8E421FB689A607B68D3F8E821FB68B2
:1017F000DA607B68D3F8EC21FB681A6100BF103710
:10180000BD4680BD180E0020300A0020040E0020C6
:1018100080B487B000AF786039607B681A4A1A607C
:101820001A4B7B6100233B611DE03A6913469B0024
:1018300013449B001A46164B1344FB60FB681B695C
:101840007A699A4202DAFB681B697B61FB681A6954
:101850007B681B689A4203DAFB681A697B681A6026
:101860003B6901333B613A690A4B1B689A42DCD3FE
:101870007B681B687A69D21A3B681A6000BF1C3704
:10188000BD465DF8047B7047FFE0F505011F0AFACD
:10189000300A0020180E0020B0B598B000AF786074
:1018A000AB4B1B68052B01D8042348E14FF0000324
:1018B0007B614FF00003BB614FF00003FB614FF011
:1018C00000033B6207F10C0207F1100311461846B2
:1018D000FFF79EFFFB68002B01D10123FB60002373
:1018E000FB65D5E0FA6D13469B0013449B001A4636
:1018F000984B1344BB63FB6D5A1C13469B00134467
:101900009B001A46934B13447B634FF0FF33BB6538
:101910007B6B93ED007ABB6BD3ED007A77EE677A41
:10192000B1EE007A67EE877AC7ED0C7A7B6B93EDA8
:10193000017ABB6BD3ED017A77EE677AB2EE007A6B
:1019400067EE877AC7ED0B7A3B6B3B65D7ED147A70
:10195000F5EEC07AF1EE10FA05D5D7ED147AF1EE76
:10196000677AC7ED147AFB6AFB64D7ED137AF5EE5C
:10197000C07AF1EE10FA05D5D7ED137AF1EE677A59
:10198000C7ED137A97ED147AD7ED137AB4EEE77AB0
:10199000F1EE10FA14DDD7ED0C7AF5EEC07AF1EE27
:1019A00010FA04DD0323BB653B6B7B651CE002235F
:1019B000BB65D7ED0C7AF1EE677AC7ED157A13E0C7
:1019C000D7ED0B7AF5EEC07AF1EE10FA04DD0123C3
:1019D000BB65FB6A7B6507E00023BB65D7ED0B7A2F
:1019E000F1EE677AC7ED157AD7ED157AB0EE087A81
:1019F000F4EEC77AF1EE10FA08DCD7ED157AB8EEFE
:101A0000087AF4EEC77AF1EE10FA02D54FF000032F
:101A10007B65BB6B1A693B69D31A07EE903AF8EE07
:101A2000E76AFB6807EE903AB8EEE77AC6EE877A87
:101A3000C7ED0A7A7B6B1A693B69D31A07EE903AB5
:101A4000F8EEE76AFB6807EE903AB8EEE77AC6EE82
:101A5000877AC7ED097ABB6D9B0060333B444C3BF2
:101A600093ED007AD7ED156AD7ED0A7A66EEA76A8C
:101A7000D7ED097A66EEA77A77EE277ABB6D9B00E1
:101A800060333B444C3BC3ED007AFB6D0133FB6597
:101A90002F4B1B685A1EFB6D9A423FF623AF7B69A2
:101AA000BB6400237B6401233B6419E03B6C9B0017
:101AB00060333B444C3BD3ED007A97ED127AB4EEA1
:101AC000E77AF1EE10FA08D53B6C9B0060333B449B
:101AD0004C3B1B68BB643B6C7B643B6C01333B64DD
:101AE0003B6C032BE2DD0123FB6324E0FA6B7B6C90
:101AF0009A421DD0FB6B9B0060333B444C3B1B6800
:101B0000184609F081FB04460D46B86C09F07CFBD1
:101B10000DA3D3E9002309F0CFFB02460B46204674
:101B2000294609F059FE0346002B01D0042306E0A4
:101B3000FB6B0133FB63FB6B032BD7DD7B6C184620
:101B40006037BD46B0BD00BFCDCCCCCCCCCCEC3FDB
:101B5000180E0020300A002080B5ADF5027D00AFE0
:101B600007F50273A3F50173186007F50273A3F577
:101B7000007307F50272A2F5017212681A6007F18C
:101B800008031846FFF70CFD404A07F50273A3F55A
:101B90000073104619464FF4F8731A4603F08CFA96
:101BA00007F108031846FFF79CFCC7F8F80100236B
:101BB000C7F804320FE0D7F804320133344A52F840
:101BC00023203349D7F8043241F82320D7F80432D0
:101BD0000133C7F80432D7F80432032BEBDD2C4A6B
:101BE000D7F8F83113612B4B1B68002B09D1D7F8BC
:101BF000F831002B05D0284B00221A60254B01221A
:101C00001A60D7F8F831002B04D007F10803184602
:101C1000FFF7A6FD0123C7F800320023C7F8FC3107
:101C20000FE01B4AD7F8FC3152F82330002B03D0C9
:101C30000023C7F8003208E0D7F8FC310133C7F8B9
:101C4000FC31D7F8FC31042BEBDD124B1B68002B69
:101C500014D0D7F80032002B10D007F10803184633
:101C6000FFF71AFE03460D4A13600D4B64221A60FB
:101C7000084B00221A60094B1B6801E04FF0FF334C
:101C8000184607F50277BD4680BD00BF141000203E
:101C9000FC0F002010100020180E00200000002073
:101CA0000412002080B586B000AF0346FB71124BD2
:101CB000FB604FF440733B6100237B750123BB75D0
:101CC000FB79002B07D002233B7507F10C03184664
:101CD00001F08AF80CE001233B7507F10C0318466C
:101CE00001F082F8FB683A691146184601F038F9AC
:101CF00000BF1837BD4680BD0080004080B58AB067
:101D000006AF0023FB6001233B7001237B7001239E
:101D1000BB700123FB7001233B7101237B71012305
:101D20003B7202AB3A4607CA03C31A700F4B0193CA
:101D3000002300930123012201210D4801F082FBC1
:101D4000F860FB68002B01D0FB680BE00821084815
:101D500001F0AEFC0021064801F0B4FC0020FFF7C2
:101D6000A1FFFB6818461037BD4680BD404B4C00B4
:101D700000E00B4080B590B000AFF860B9607A60C9
:101D8000FB700023BB63FB78022B0ED0022B13DC0D
:101D9000002B02D0012B04D00EE0012387F83F3046
:101DA0000DE0022387F83F3009E0032387F83F3036
:101DB0000120FFF777FF02E06FF0020331E097F8B0
:101DC0003F301946194801F079FC184B3B6100235C
:101DD0007B617B68BB610023FB61FB683B62002386
:101DE0007B62BB68BB620023FB6200233B63002372
:101DF0007B6307F11003184601F076FCB863BB6BF8
:101E0000002B07D0FB78022B02D10020FFF74AFFFE
:101E1000BB6B06E0FB78022B02D10020FFF742FFEC
:101E2000BB6B18464037BD4680BD00BF00E00B408D
:101E300080B590B000AFF860B9607A60FB700023A5
:101E4000BB63FB78022B0ED0022B13DC002B02D0DD
:101E5000012B04D00EE0012387F83F300DE0022370
:101E600087F83F3009E0032387F83F300120FFF770
:101E700019FF02E06FF0020331E097F83F30194696
:101E8000194801F01BFC184B3B6100237B617B6808
:101E9000BB61FB68FB6100233B62BB687B62002384
:101EA000BB620023FB6200233B6300237B6307F1DB
:101EB0001003184601F018FCB863BB6B002B07D069
:101EC000FB78022B02D10020FFF7ECFEBB6B06E093
:101ED000FB78022B02D10020FFF7E4FEBB6B184613
:101EE0004037BD4680BD00BF00E00B4080B590B0DC
:101EF00000AF786039602A4801F0DCFB0346082B0C
:101F000002D06FF0060347E0254801F0D9FB0346F5
:101F100087F83F3097F83F30032B0ED0032B10DCAF
:101F2000012B02D0022B04D00BE07B68DB087B6026
:101F30000AE07B689B087B6006E07B685B087B604F
:101F400002E06FF0060327E0786802F0F5FD034633
:101F5000BB637A680021B86B03F048F9104BFB6053
:101F600000233B613B687B61BB6BBB610023FB6172
:101F70007B683B6200237B620023BB620023FB6221
:101F800000233B6307F10C03184601F0ADFB7863B7
:101F9000B86B02F0D9FD7B6B18464037BD4680BD5B
:101FA00000E00B4080B584B000AFF860B9607A60A3
:101FB000FB687A68B968024803F076F9FEE700BF6B
:101FC00058BD0010B0B59EB000AF3F4B07F16404A0
:101FD0000FCB84E80F0007F16403184600F094FA71
:101FE00078677B6F002B01D07B6F69E0002000F0E9
:101FF00065FD012000F062FD402000F05FFD00F073
:1020000075F878677B6F002B01DA7B6F58E000F082
:10201000AFF978677B6F002B07D04FF4BA722B496A
:102020002B48FFF7BFFF7B6F4AE000F047F9786766
:102030007B6F002B07D040F2791224492448FFF728
:10204000B1FF7B6F3CE0234B07F14C041D460FCDE5
:102050000FC495E8030084E803001F4A07F140031A
:1020600007CA83E807001D4A07F1340307CA83E85B
:10207000070007F1340207F1400107F14C0318464D
:1020800000F0AEF9164B07F11C041D460FCD0FC42E
:1020900095E8030084E80300124A07F1100307CA19
:1020A00083E80700104A3B1D07CA83E807003A1D72
:1020B00007F1100107F11C03184600F0DDF90023B9
:1020C00018467837BD46B0BDBCBD001074BD0010C9
:1020D000B4BD0010CCBD0010E4BD0010F0BD001078
:1020E000FCBD001014BE001020BE001080B582B0F0
:1020F00000AF094B1B6802224FF4E131184602F091
:10210000EBF978607B68002B01D07B6800E000234E
:1021100018460837BD4680BD0400002080B500AFDA
:10212000014803F023F9FEE72CBE001080B500AF94
:10213000014803F01BF9FEE738BE001080B483B0FD
:1021400000AF78604FF0FF3318460C37BD465DF89E
:10215000047B704780B483B000AF78604FF0FF33EA
:1021600018460C37BD465DF8047B704780B485B0D7
:1021700000AFF860B9607A604FF0FF33184614374B
:10218000BD465DF8047B704780B483B000AF7860D3
:1021900039604FF0FF3318460C37BD465DF8047BBD
:1021A0007047000080B586B000AFF860B9607A6013
:1021B00000233B61FB68002B31D100237B6129E0C8
:1021C0001D4802F05DFA0346DAB2BB681A7000BF20
:1021D000BB681B781946184802F054FA034613F1FD
:1021E0000C0FF5D0BB681B780D2B0AD1BB680A22F7
:1021F0001A703B6901333B61BB680133BB6000BFB0
:1022000015E0BB680133BB603B6901333B617B690F
:1022100001337B617A697B689A42D1DB07E002F087
:1022200061FC034609221A604FF0FF3300E03B696E
:1022300018461837BD4680BD0020044080B586B0E2
:1022400000AFF860B9607A60FB68013B012B25D8CC
:1022500000237B611DE0BB681B780A2B08D100BFFF
:102260000D21154802F00EFA034613F10C0FF7D0BA
:1022700000BFBB681B7819460F4802F003FA0346FB
:1022800013F10C0FF5D0BB680133BB607B690133E0
:102290007B617A697B689A42DDDB07E002F022FC11
:1022A000034609221A604FF0FF3300E07B681846AE
:1022B0001837BD4680BD00BF0020044080B582B005
:1022C00000AF00237B6000233B6015E0386800F01E
:1022D00021F83A6813465B0013449B000B4A1344F1
:1022E000184600F081FD0346002B02D06FF0070373
:1022F0007B603B6801333B60054B1B683A689A4240
:10230000E4D37B6818460837BD4680BD00BD001089
:1023100054BD001080B582B000AF7860104B1B68D0
:102320007A689A4204D345220E490F48FFF73AFED5
:102330000E497A6813465B0013449B000B441868EF
:102340000A497A6813465B0013449B000B4404332C
:102350001B68194600F004FE00BF0837BD4680BD6B
:1023600054BD00104CBE00108CBE001000BD00100B
:1023700080B582B000AF00237B6000233B6012E099
:102380003A6813465B0013449B000C4A13441846FA
:1023900000F02AFD0346002B02D06FF007037B609C
:1023A0003B6801333B60064B1B683A689A42E7D3AF
:1023B0007B6818460837BD4680BD00BFE4BC0010EE
:1023C000FCBC001080B500AF002000F003FE00BF91
:1023D00080BD80B500AF012000F0FCFD00BF80BDD6
:1023E00090B486B000AFF860B9607A6000237B617A
:1023F000FB68002B02D14FF0FF332CE0FB681B6819
:10240000174A1360FB685B69164A1360FB681B6917
:10241000154A1360154AFB681446043393E8070015
:1024200084E80700BB68002B05D0114BBA6807CAC7
:1024300083E8070002E00E4B00221A607B68002B45
:1024400005D00C4B7A6807CA83E8070002E0094B05
:1024500000221A607B6918461837BD4690BC704749
:10246000081200200C120020101200202C12002054
:10247000141200202012002090B486B000AFF86043
:10248000B9607A6000237B61BB68002B02D0FB68D7
:10249000002B02D14FF0FF3325E0FB681B68144A84
:1024A0001360FB685B69134A1360FB681B69124A7F
:1024B0001360124BBA6807CA83E80700104AFB682A
:1024C0001446043393E8070084E807007B68002B78
:1024D00005D00C4B7A6807CA83E8070002E0094B75
:1024E00000221A607B6918461837BD4690BC7047B9
:1024F000381200203C12002040120020441200201C
:102500005C1200205012002090B484B000AF7860BC
:102510000023FB607B68002B02D16FF05F0309E0B2
:10252000074A7B6814460FCB84E80F00054B012255
:102530001A70FB6818461037BD4690BC704700BF44
:10254000681200207812002045488546454880479B
:1025500080B94549454A464B9B1A03DD043BC858A0
:10256000D050FBDC4349444A00209142BCBF41F8B3
:10257000040BFAE74148804741488047414880477B
:10258000FFF7FEFFFEE7FEE7FEE7FEE7FEE7FEE7FA
:10259000FEE7FEE7FEE7FEE7FEE7FEE7FEE7FEE713
:1025A000FEE7FEE7FEE7FEE7FEE7FEE7FEE7FEE703
:1025B000FEE7FEE7FEE7FEE7FEE7FEE7FEE7FEE7F3
:1025C000FEE7FEE7FEE7FEE7FEE7FEE7FEE7FEE7E3
:1025D000FEE7FEE7FEE7FEE7FEE7FEE7FEE7FEE7D3
:1025E000FEE7FEE7FEE7FEE7FEE7FEE7FEE7FEE7C3
:1025F000FEE7FEE7FEE7FEE7FEE7FEE7FEE7FEE7B3
:10260000FEE7FEE7FEE7FEE7FEE7FEE7FEE7FEE7A2
:10261000FEE7FEE7FEE7FEE7FEE7FEE7FEE7FEE792
:10262000FEE7FEE7FEE7FEE7FEE7FEE7FEE7FEE782
:10263000FEE7FEE7FEE7FEE7FEE7FEE7FEE7FEE772
:10264000FEE7FEE7FEE7FEE7FEE7FEE7FEE7FEE762
:10265000FEE7FEE7FEE7FEE7FEE7FEE7FEE7FEE752
:1026600000000220CD27001048C500100000002007
:10267000CC090020000A0020801A002051280010F8
:10268000F14A00105904001080B584B000AF7860A2
:10269000124B1B68002B02D1104B114A1A600F4BD2
:1026A0001B68FB600D4B1A687B6813441A460D4B80
:1026B0009A4207D902F016FA03460C221A604FF02C
:1026C000FF3306E0054B1A687B681344034A136026
:1026D000FB6818461037BD4680BD00BF7C12002045
:1026E000801A002000F0012080B485B000AF4FF0C8
:1026F00080439B6803F46063BB60BB68B3F5606FA5
:102700002BD0BB68B3F5606F3FD8BB68B3F5406FA3
:1027100037D0BB68B3F5406F37D8BB68B3F5206FCF
:102720002BD0BB68B3F5206F2FD8BB68B3F5006F13
:102730001DD0BB68B3F5006F27D8BB68B3F5C06F79
:1027400011D0BB68B3F5C06F1FD8BB68002B11D088
:10275000BB68B3F5806F03D017E0174BFB6017E041
:10276000164BFB6014E04FF4FA53FB6010E0144B7F
:10277000FB600DE0134BFB600AE04FF4E103FB60EC
:1027800006E04FF40043FB6002E00D4BFB6000BF2E
:102790004FF080439B689B0903F007037B60FA6856
:1027A0007B6822FA03F3084A136000BF1437BD4662
:1027B0005DF8047B704700BFC06878040048E801FA
:1027C00000E1F505008793030800002080B483B082
:1027D00000AF4FF080439B6803F4E0737B604FF0E1
:1027E00080439B684FF0804243F4E073936000BFE6
:1027F000124B1B6C03F00103002BF9D000BF0F4BF1
:102800001B6C03F00203002BF9D000BF0B4B1B6CB9
:1028100003F00403002BF9D04FF080439B6823F4AE
:10282000E0724FF080417B6813438B6000231846B1
:102830000C37BD465DF8047B704700BF0044004084
:1028400080B400AF00BFBD465DF8047B7047000058
:1028500080B500AF204B214A9A6062B600BF204885
:1028600000F05AFD1C4BD3F888301B4A43F4700328
:10287000C2F88830BFF34F8F00BFBFF36F8F00BF28
:1028800040F2D66000F062FD00BF00F071FD03462B
:10289000002BFAD140F24C4000F05EFD00BF00F08A
:1028A0006DFD0346002BFAD140F24C4000F05AFD7A
:1028B00000BF00F069FD0346002BFAD1042000F0B0
:1028C0007BF9002000F016FAFFF70EFFFFF77AFB06
:1028D000FFF7B6FF00BF80BD00ED00E00000001074
:1028E00000A0024038B54FF0E02318499C691A69EE
:1028F00022F480320A601A69D2075BBF6FF07F440E
:1029000005225D695C615CBF9C611A61104B114AD4
:1029100019684FF00003A0FB010154BF4FF0807510
:10292000013508F0F1FF0C4BB0FBF5F205FB12008E
:1029300084421A6098BF1A6808499CBF6419013222
:10294000A4EB000098BF1A60086038BD8412002014
:102950000800002040420F000C00002088120020D8
:1029600010B50C4A0C4C11602268002A0EDC08B924
:10297000002010BDFFF7B6FF2368002BC1BF4FF04A
:10298000E022136943F002031361F1E76FF00500E1
:10299000EFE700BF801200200C00002010B5094CAA
:1029A000236823B16FF00F00984700232360064B84
:1029B0001A684FF0E0231A61044B4FF0FF321A609F
:1029C00010BD00BF80120020841200200C000020E7
:1029D00038B5124B1A68002A0ADA114D2B6813B960
:1029E0000024204638BD0020984700242C60F8E7DA
:1029F0001C687CB94FF0E0239A690A4B1B689A4225
:102A000008D8074DFFF7CAFF2B68002BE8D02046F7
:102A10009847EBE76FF00504E3E700BF0C000020E8
:102A2000801200208812002010B5114C2268002A64
:102A30001ADC80B1FFF756FF4FF0E0222368002B2D
:102A40000ADC0C4B1B684FF0E0218A699A42FCD8E3
:102A5000FFF7A4FF002010BD1369DB0342BF23680A
:102A600003F1FF332360E9E76FF00500F3E700BFF0
:102A70000C000020881200203F2809D90E4A403857
:102A8000D168C0B2012303FA00F00843D060704758
:102A90001F284FF0804208D92038916CC0B2012322
:102AA00003FA00F0084390647047516A012303FA67
:102AB00000F0084350627047000008403F280AD9E0
:102AC00010494038CB68C0B2012202FA00F023EA74
:102AD0000000C86070471F284FF0804309D9203894
:102AE0009A6CC0B2012101FA00F022EA0000986459
:102AF00070475A6A012101FA00F022EA0000586288
:102B0000704700BF0000084038B5002104464FF46C
:102B10007A70FFF725FF4FF08045AB68234203D062
:102B2000FFF73CFF002038BDFFF752FF0630F4D01E
:102B30006FF00900F7E700000238052804D8DFE845
:102B400000F01C1906102D366FF0020070474FF090
:102B500080424FF00060936843F400239360FFF7D6
:102B6000D3BF4FF080424FF08050936843F48013FE
:102B70009360F4E74FF00050F1E74FF0804342F2EA
:102B800088115A6F42F011025A670A4A91619A6895
:102B900042F480329A604FF08070E0E74FF080425C
:102BA0004FF00070936843F400339360D7E76FF001
:102BB000100070470008004038B54FF080439D6812
:102BC000072800F29480DFE800F004925D732C4245
:102BD00079589A68520316D54FF08042936823F4CF
:102BE000606393604FF40050FFF78EFF04460028A7
:102BF0007AD04FF0804205F46065936823F46063F7
:102C00002B43936009E09A6842F480229A604FF067
:102C10008060FFF779FF0028DED06FF009042046BE
:102C200038BD9A68140307D54FF08042936823F4A7
:102C3000606343F40063D4E79A6842F400229A6028
:102C40004FF00060FFF760FF0028EDD0E5E79A68DD
:102C5000D00207D54FF08042936823F4606343F4B9
:102C60002063BEE79A6842F480129A604FF0805069
:102C7000FFF74AFF0028EDD0CFE79A6842F4606280
:102C80009A60AFE79A68D10307D54FF08042936806
:102C900023F4606343F48063A3E79A6842F48032CC
:102CA0009A604FF08070FFF72FFF0028EDD0B4E757
:102CB0009A6822F4606242F4C062E1E79A68920383
:102CC00007D54FF08042936823F4606343F4406378
:102CD00087E79A6842F400329A604FF00070FFF77D
:102CE00013FF0028EDD098E7FFF7FEFC97E76FF0A1
:102CF000020494E74FF08042936803F4E073984233
:102D000008D0936800F4E07023F4E07318439060F7
:102D1000FFF7EABC704700003F284FF0010309D9D4
:102D20004038C0B203FA00F00D4B98609A68104228
:102D3000FCD170471F280AD92038C0B203FA00F02E
:102D40004FF0804358645A6C1042FCD1704703FA2C
:102D500000F04FF0804358605A681042FCD1704731
:102D60000000084008B5054B05494FF4F0721846BD
:102D700002F0A2F9034A906008BD00BF00140020D1
:102D80000000001000ED00E0F8B50B4B0B4E9B6807
:102D90009E4204460D4600F1100701D0FFF7E2FF06
:102DA0006209074B46F8275004F01F04012000FA7F
:102DB00004F443F82240F8BD00ED00E000140020C8
:102DC00000E100E0C20710B5044602D50020FFF77D
:102DD00075FEA30702D50120FFF770FE2046BDE86F
:102DE000104001F00FBE000038B504685A4B9C42F9
:102DF000054660D003F580539C4200F0A88003F59F
:102E0000EE2303F580639C4200F0A38003F500737A
:102E10009C4200F090804FF0FF3301209840FFF774
:102E2000D1FF6A68297A204600F02CF9002840F08A
:102E30008D806B7A042B7BD8DFE803F03F5E724F06
:102E40006A0046490A6A22F002020A626A7A5AB1A4
:102E5000012A79D141490A6A42F0040208E03F4957
:102E60000A6A42F00202F0E73C490A6A22F00402D0
:102E70000A6213F0020316D02B7A33B1012B63D10F
:102E8000364A136A43F0200303E0344A136A23F0FE
:102E900020031362687A40B1012855D12F4A136A82
:102EA00043F040031362002050E02C4A136A23F0E1
:102EB000400313624AE00023AFE7226E696822EA0A
:102EC00001022266636E23EA010363666A68A97AD7
:102ED0002046BDE8384000F0C3B8236E6A6813434B
:102EE0002366636E23EA02036366D4F8B83023EAEC
:102EF0000203C4F8B830E9E7226E6B681A43226611
:102F0000626E22EA03026266D4F8B8201343F0E747
:102F1000236E6A6823EA02032366636E1343E3E7C2
:102F2000226E6B6822EA03022266626E1A43EAE7A7
:102F30006FF002000AE04368DA079AD52A7A002A7D
:102F40003FF47FAF012A8AD06FF0100038BD012313
:102F500063E7022361E700BF00800040006C00408F
:102F60000A4A90420B460ED1CA0741BF08490A6A75
:102F700042F001020A629B0707D5054A136A43F033
:102F800010031362704700F02BB87047000608402A
:102F9000006C00400A4A90420B460ED1CA0741BF5E
:102FA00008490A6A22F001020A629B0707D5054A0E
:102FB000136A23F010031362704700F013B87047D0
:102FC00000060840006C004000F00EB800F010B899
:102FD00000F040B801F028BD00F03EB800F03EB867
:102FE000C1617047016270478369594081617047D0
:102FF000036804292BD8DFE801F01003221E260005
:10300000DA6A416822EA0102DA62DA6D22EA010232
:10301000DA659A6A22EA01020AE0D96A426821EA7C
:103020000201D962D96D21EA0201D965996A0A4380
:103030009A6200207047DA6A41680A43E4E7D96A75
:1030400042681143EDE7D96D42681143EDE76FF037
:10305000020070478163704781647047006C70475D
:1030600021B101290AD06FF002007047D0F8C030BA
:1030700023EA0202C0F8C02000207047D0F8C03018
:103080001A43F7E7036B13430363052919D8DFE8F5
:1030900001F0030B0D111416426142600267C26712
:1030A000C0F88820002070470261F6E7C267026717
:1030B0008260F5E7C267C266FAE78267F7E7826770
:1030C000F9E76FF00200704700F00EB800F01FB88B
:1030D00000F02BB800F03CB800F04DB800F053B849
:1030E00000F059B800F05AB870B1036B13F0010347
:1030F00005D0036B43F00203036300207047026BAB
:1031000042F001020263F8E74FF0FF30704748B128
:10311000036B43F004030363036B13F00403FBD15D
:10312000184670474FF0FF30704710B568B161B175
:1031300000239A4201D1184610BD4468A407FAD46E
:10314000C46AE4B2CC540133F3E74FF0FF30F3E745
:1031500010B568B161B100239A4201D1184610BD83
:103160004468E406FAD4CC5CE4B2C4620133F3E709
:103170004FF0FF30F3E7C36943F08003C361C369D5
:103180001B06FCD47047436A43F080034362436AE2
:103190001B06FCD470478160026170472DE9F04145
:1031A000D0E900437F2B054600F2AA80594B9C4290
:1031B00008D003F580539C4204D003F580539C4211
:1031C00040F0A18023689A0740F1A08007226FF0A9
:1031D0007F412046FFF784FF2046FFF77FFF204610
:1031E000FFF77AFF0023E36063616B690BB1EB6863
:1031F00033B16B685B00E362236B43F0010323632D
:1032000000262027EA68B24231D800221121204648
:10321000FFF766FF6B697BB1B3F5807F88BF002342
:1032200023622046FFF750FF236B9E07FCD46B6898
:103230005B0043F00103E362002610274FF0010812
:103240006A69B2422AD8AB69002B51D0236B43F094
:1032500002032363A368DB07FCD54123A360A368B3
:1032600013F4FE4F0CBF00206FF0080014E0A368B9
:103270009B0607D5A968921B31442046FFF72AFF19
:10328000A7600644A36813F4FE4FBBD0EE6020464F
:10329000FFF71CFF6FF00800BDE8F081A36813F092
:1032A000110F07D02969921B31442046FFF710FF08
:1032B000A7600644A26812F4FE4201D06E61E6E700
:1032C000A368D907BCD56B69B342B9D29B1BB3F5D0
:1032D000807F8CBF22622362236B43F0020323634F
:1032E0006B68C4F808805B0043F00103E362A7E762
:1032F000236B43F004032363A3685A06FCD5A9E7B4
:103300006FF01000C8E76FF00200C5E76FF006002D
:10331000C2E700BF00D0014000F000B8D0F8003193
:1033200023F00103C0F800310123C0F80037D0F8C2
:103330000031DA03FBD5D0F8003143F00103C0F8C7
:103340000031D0F80031DB03FBD57047014601485E
:1033500000F020B8004400400146014800F02FB8BA
:10336000004400400146014800F03EB800440040DF
:10337000014800F04EB800BF00440040014800F092
:1033800050B800BF00440040014800F052B800BFF0
:10339000004400404368426813F0800F14BF4FF4AC
:1033A00016734FF4FA73C91A22F07F020A23B1FB95
:1033B000F3F303F07F031343436043607047836874
:1033C000826813F0800F14BF4FF416734FF4FA7332
:1033D000C91A22F07F020A23B1FBF3F303F07F0343
:1033E0001343836083607047C368C26813F0800F23
:1033F00014BF4FF416734FF4FA73C91A22F07F0208
:103400000A23B1FBF3F303F07F031343C360C360EC
:103410007047036C13F0010F0CBF6FF00600002023
:103420007047036C13F0020F0CBF6FF00600002012
:103430007047036C13F0040F0CBF6FF00600002000
:10344000704700002DE9F04F8BB01D469DF85930B4
:1034500003939DF85A3002939DF85C3004939DF8D5
:103460005D3005936C4B9DF858609DF85B709DF83E
:103470005EA09DF85FB0984204468946904600F0F1
:10348000B38003F5F023984200F0BC8063496448A0
:103490003822FEF787FD042D00F3AF8000238DF85E
:1034A0002530604B07939DF860308DF826305A4BDD
:1034B0009C4252D10D20FFF72FFC0620FFF7FEFAA9
:1034C000029B43B14FF08063089307A803238DF854
:1034D0002430FFF789FC47B103238DF8243007A877
:1034E0004FF000630893FFF77FFC002E31D1089660
:1034F000049B1BB1089B43F480030893059B1BB1FD
:10350000089B43F400130893BAF1000F03D0089B03
:1035100043F080730893BBF1000F03D0089B43F086
:1035200000730893039B1BB1089B43F4801308931B
:10353000022307A88DF82430FFF756FC159B019352
:10354000149B009342462B464946204600F060FA01
:1035500055E04FF400030893CAE7334B9C4240D137
:103560002B20FFF7D9FB3020FFF7A8FA029B43B1CD
:103570004FF40063089307A803238DF82430FFF766
:1035800033FC47B103238DF8243007A84FF4806340
:103590000893FFF729FC0EBB0896049B1BB1089B00
:1035A00043F040030893059B1BB1089B43F02003A5
:1035B0000893BAF1000F03D0089B43F4807308937B
:1035C000BBF1000F03D0089B43F400730893039BE7
:1035D000002BADD0089B43F01003A8E7802308938D
:1035E000DBE76FF001000AE0042D06DC0F4B159AB3
:1035F0001B68B2EB530F7FF651AF6FF002000BB0B8
:10360000BDE8F08F042DF8DC084B159A1B68934237
:10361000BFF444AFF1E700BF006004409BBE001060
:10362000DEBE00100080004000E00B4008000020DB
:10363000174B984204D1174B186840084010704748
:10364000154B98421DD14FF080439B68C3F3422332
:10365000072B19D8DFE803F00718110913040C0F22
:103660004FF4E100EAE70D48E8E74FF4FA50E5E7E8
:103670004FF40040E2E70A48E0E70A48DEE70A487C
:10368000DCE76FF0020070476FF00600704700BF84
:10369000006004400800002000E00B400087930316
:1036A000C06878040048E80100E1F50500F024BA9C
:1036B00000F05ABA00F0A4BA00F0C0BA00F0EEBAB6
:1036C00000F01CBB00F02CBB00F060BB00F07EBB28
:1036D00000F084BB00F0CABB00F0CCBB00F00CBC17
:1036E00000F026BC00F04ABC00F06CBCF8B5584AAB
:1036F0000368934204467CD002F5F02293427AD0CC
:103700005449554840F2E622FEF74CFC4FF0FF3694
:103710006368032B05DD4F49504840F2E722FEF76E
:1037200041FCE3681BB92369002B00F08E806369BC
:10373000B3F5803F80F089802068494DFFF7BAFFDC
:1037400028227243A9180023C4E9073381F82530E1
:103750004B60CB68AC5007462068012B02BF436822
:1037600023F00103436043689A0702D56168FFF7BD
:10377000A3FF23692068002B3FD0A269002A3CD018
:1037800083689BB243EA02438360C36943F48003C6
:10379000C361FFF795FF012815D12368DB681B047F
:1037A00011D4E3687BB9282303FB0653A269196986
:1037B0002069FFB2082F88BF520001F017FD23696E
:1037C000E360A3696361E0682368264FE0B1616943
:1037D000D1B19A6889B23A400A439A60DA6942F0F4
:1037E0004002DA612269BAB1A269003A18BF012227
:1037F00013E000268CE701268AE783689BB283608A
:10380000C36923F48003C3E79A683A409A60DA698F
:1038100022F04002DA61A0B90022282101FB0655FE
:10382000002085F82420DA6942F08012DA615A68B3
:1038300042F001025A60A268EA604FF400621A6224
:10384000F8BD6269002AE7D0CCE76FF00200F7E725
:1038500000600440EBBE0010DEBE00103ABF001056
:10386000E41500200000FFFF4C4B98422DE9F04783
:1038700006460D4600F08D8003F5F02398420CBFFC
:103880004FF001094FF0FF392868FFF713FFD5E922
:103890000578C0B2E968082884BF7F004FEA48086D
:1038A00041B1EB693046FA1A1944FFF715FFEB698D
:1038B0001844E861E969791A6ED02029C8BF20212F
:1038C0003046FFF70FFF0124D5F810A0BAF1000F22
:1038D00013D1EB69BB4210D1314BC6F824A028208C
:1038E00000FB093001F088F82E4B1C782CB16C6A73
:1038F0001CB151462846A0475446296979B32B6A22
:1039000030461944A8EB0302FFF7E2FE296A084497
:103910002862B8EB000009D02028D4BF00F1FF31A5
:1039200002213046FFF7DCFE44F00404D5F80CA079
:10393000BAF1000F13D12B6A984510D1184BC6F875
:1039400024A0282000FB093001F056F8154B1C7804
:103950002CB16C6A1CB151462846A04754462B6ACC
:10396000434513D1EB69BB4210D10D4B00272820F2
:1039700000FB0930776201F03FF80A4B1C782CB14C
:103980006C6A1CB139462846A0473C462046BDE833
:10399000F0874FF0000977E70C4695E70060044098
:1039A000E4150020E0150020164B98422DE9F04167
:1039B00004460D4624D0144FB8420CBF01274FF0E7
:1039C000FF37AB681BB9636843F4807363600F4EC5
:1039D00029462046FFF748FF282303FB0766804659
:1039E000736823B92046FFF76FFE01237360AB684D
:1039F0001BB1636823F4807363604046BDE8F081C7
:103A00000027DEE70060044000E00B40E4150020E2
:103A10002DE9F8431F46334BDDF8209098420446C9
:103A20008846164638D003F5F023984236D02E4902
:103A30002E484F22FEF7B6FA4FF0FF332C492822CA
:103A40005343CD180022CA500123C5E90332C5E90A
:103A50000722AA606FF00102C5E905226360254BC9
:103A600023616368B8F1000F1AD043F0020309998B
:103A700063602046FFF71AFEB9F1FF0F2ED8E36806
:103A800043EA0943E360236A2362012F0BD1636891
:103A900043F4803363600CE00023CFE70123CDE7DC
:103AA00023F00203E3E7022F0CD0032F0ED0042FE4
:103AB00010D026B1E36843F40053E360002630469B
:103AC000BDE8F883636843F44033E3E7636843F495
:103AD000E023DFE7636843F47023DBE76FF002065F
:103AE000EDE700BF00600440EBBE0010DEBE00103A
:103AF000E41500200101010038B51A4B1B68B1EB39
:103B0000530F04460D462AD8FFF792FDB0FBF5F09F
:103B10004308C2074CBF5A1C1A4600210F2A08DD71
:103B2000082902D10F231A4605E052105B1001311B
:103B3000F4E70829F6D06069DBB220F0FF00034308
:103B40006361636923F47F4343EA0222626163692C
:103B500023F4702343EA01436361002038BD6FF012
:103B60000200FBE708000020012938B504460D4695
:103B700037D0102935DC1E4B98422ED003F5F023A8
:103B800098422CD04FF486721A491B48FEF70AFA65
:103B90004FF0FF32236BDB0726D4184B282101FBA3
:103BA0000233DA68012A1FD1626822F001026260E2
:103BB000102D9D60E3681FBF2D0205F4706523F48E
:103BC00070631D430ABF23F47063E560E3606368BC
:103BD00043F001036360002038BD0022DAE70122D0
:103BE000D8E76FF00200F7E76FF00600F4E700BFD8
:103BF00000600440EBBE0010DEBE0010E4150020A3
:103C00000B4B984210B5044609D003F5F0239842B7
:103C100005D0084908484FF49572FEF7C3F9E368E8
:103C200013F4706F16BFE0681020C0F3032010BDBE
:103C300000600440EBBE0010DEBE0010032938B562
:103C400004460D461DDC43689B071DD5104B98426A
:103C500009D003F5F023984205D00E490E484FF4E1
:103C6000B772FEF79FF962684FF4803303FA05F1EB
:103C70000A436260636861F470211940616000204A
:103C800038BD6FF00200FBE76FF00600F8E700BFF9
:103C900000600440EBBE0010DEBE001038B5144BCF
:103CA000984204460D4609D003F5F023984205D00A
:103CB000104911484FF4C472FEF774F9E36823F415
:103CC0003043E360032D07D8DFE805F002080A0E51
:103CD000E36843F40043E360002038BDE368FAE79B
:103CE000E36843F48053F6E7E36843F40053F2E7F4
:103CF00000600440EBBE0010DEBE0010C3681A0472
:103D000009D4C368DB0408D4C36813F4005F0CBF94
:103D100001200320704700207047022070470000F8
:103D200038B5174B984204460D4609D003F5F023E9
:103D3000984205D0134914484FF4DB72FEF732F96C
:103D4000032D0BD8DFE805F0020C1418E36823F00C
:103D50000103E360E36823F00203E360002038BD61
:103D6000E36823F00103E360E36843F00203F4E750
:103D7000E36843F00103ECE7E36843F00103F2E793
:103D800000600440EBBE0010DEBE00100C4B9842F9
:103D900010B5044609D003F5F023984205D009492F
:103DA000094840F2ED12FEF7FDF82046FFF78EFCC1
:103DB000831D1FBF636843F020036360002010BDB4
:103DC00000600440EBBE0010DEBE0010036B13F079
:103DD000010F14BF6FF0050000207047F8B5204BAD
:103DE000984205460E46144609D003F5F023984242
:103DF00005D01C491C4840F22D22FEF7D3F816B915
:103E000000231846F8BD002CFAD02846FFF762FCC4
:103E100007462846FFF74EFCA74228BF274608283A
:103E200012D80023002FECD0032F06EB030110D98A
:103E30002968F150043F0433012FF3D10828E0D85A
:103E40002A78F2540133DCE727F00107012FE8D884
:103E5000D6E7012FF4D02C880C80023F0233EBE729
:103E600000600440EBBE00105CBF0010C069C0F3EE
:103E700005607047F8B51D4B984206460F4614463C
:103E800009D003F5F023984205D0194919484FF499
:103E90001972FEF787F83FB324B33046FFF71EFCD4
:103EA00005463046FFF706FCA54228BF25460828F0
:103EB00088BF25F001050024A5B1032D07EB0402FE
:103EC00004D93A593260043D0434F5E7012D04D099
:103ED00012883280023D0234EEE70828FDD81378BC
:103EE000337001342046F8BD3C46FBE700600440D7
:103EF000EBBE00105CBF00100A4B984210B50446A0
:103F000009D003F5F023984205D00749074840F24D
:103F10008F22FEF747F8E069C0F30520C0F12000CA
:103F200010BD00BF00600440EBBE00105CBF00107D
:103F300038B50F4B984205460C4609D003F5F023DF
:103F4000984205D00B490C4840F2A222FEF72AF80D
:103F5000202C9FBFEB69240404F4F81423F4F81315
:103F60009DBF1C43EC6100206FF0020038BD00BF14
:103F700000600440EBBE00105CBF001038B50E4B73
:103F8000984204460D4609D003F5F023984205D027
:103F90000A490B4840F2B622FEF704F8202D9FBFD5
:103FA000E16905F01F0521F01F010D439ABFE5618E
:103FB00000206FF0020038BD00600440EBBE00102E
:103FC0005CBF001038B50546FFF790FB044658B9B2
:103FD000064B187028682946FFF7E6FC0028F9D13F
:103FE0002A68136A1B05FCD5204638BDE015002061
:103FF000614B98422DE9F04106460D46174600F008
:10400000968003F58053984200F0968003F5805324
:10401000984200F0938003F58053984200F090801E
:1040200003F5DB2303F58063984200F08B8003F5F2
:104030008063984240F08880052479E0032C72DC8C
:104040000220FEF779FD4FF00108052C2ED8DFE89D
:1040500004F01F3442505E65032C64DC0520FEF73B
:104060006BFD4FF00208F0E7042C07D0032C5ADC5C
:104070004FF003080620FEF75FFDE6E74FF001086A
:10408000F8E7032C4FDD0320E9E74FF00008DCE7F9
:104090000520FEF741FE0F20FEF710FD37B1AB788B
:1040A000022B14BF35483648FEF79EFE424629468D
:1040B0003046BDE8F04100F0E1B80620FEF72CFEE6
:1040C0001020FEF7FBFC002FF0D0AB78022B14BFC2
:1040D0002C482D48E8E70720FEF71EFE1120FEF7CA
:1040E000EDFC002FE2D0AB78022B14BF2748284804
:1040F000DAE70820FEF710FE1220FEF7DFFC002FA3
:10410000D4D0AB78022B14BF22482348CCE74220FE
:10411000FEF702FE4220FEF7D1FCC7E74320FEF780
:10412000FBFD4320F7E76FF01000BDE8F0810024AD
:104130009DB94FF0FF30F8E70124F9E70224F7E7D3
:104140000324F5E70424F3E70029F2D013491448C7
:104150003122FDF727FF4FF0FF34EB78023B032BB2
:1041600093D801A252F823F03D40001059400010AE
:104170006940001083400010000001401CC0001086
:1041800028C0001034C0001040C000104CC0001007
:1041900058C0001064C0001070C0001088BF00102C
:1041A000CBBF001000F0CAB800F0F6B800F020B99C
:1041B00038B52F4B984204460D461AD003F580536C
:1041C000984216D003F58053984212D003F58053DD
:1041D00098420ED003F5DB2303F58063984208D0A4
:1041E00003F58063984204D0224923489022FDF7CA
:1041F000D9FE002D3BD0A978206902290CBF1023DD
:1042000000234FF480429A400243226108229A40E0
:10421000A0691042FCD06A7820699A40024322616A
:10422000AA68206912029A400243226101229A4040
:1042300022604FF480729A40E0681042FCD06A68B5
:104240009A406260A2694FF4005000FA03F322EA38
:1042500003030229A3610AD1A36943F08073A36118
:10426000236943F000432361A3695B03FCD538BD98
:1042700000000140D7BF0010CBBF00102C4B98426C
:1042800070B504460D4616461AD003F58053984281
:1042900016D003F58053984212D003F5805398420C
:1042A0000ED003F5DB2303F58063984208D003F5B5
:1042B0008063984204D01F491F483422FDF772FEE4
:1042C000002D32D0AB78022B1ED013F003021DD08C
:1042D0000022A16921F00041A161E16841F00111D2
:1042E000E16029782069914001432161A16906FAC2
:1042F00002F20A43A2616A78072A0FD8DFE802F0C7
:104300000A0A1010100A10101022E2E7A16941F009
:104310000041E1E729462046FFF74AFF002006E07A
:10432000022BF7D16FF0100001E04FF0FF3070BDAD
:1043300000000140D7BF0010CBBF0010134B9842C4
:1043400010B504461AD003F58053984216D003F5F1
:104350008053984212D003F5805398420ED003F553
:10436000DB2303F58063984208D003F5806398420D
:1043700004D007490748C422FDF714FE236943F41B
:1043800000432361A3695B07FCD510BD0000014019
:10439000D7BF0010CBBF0010124B984210B5044697
:1043A0001BD003F58053984217D003F580539842F1
:1043B00013D003F5805398420FD003F5DB2303F5A8
:1043C0008063984209D003F58063984205D006497E
:1043D000064840F21912FDF7E5FDE36843F00113CA
:1043E000E36010BD00000140D7BF0010CBBF00103C
:1043F000124B984210B504461BD003F580539842E7
:1044000017D003F58053984213D003F58053984298
:104410000FD003F5DB2303F58063984209D003F541
:104420008063984205D00649064840F22B12FDF7FA
:10443000B9FDA36943F00123A36110BD0000014051
:10444000D7BF0010CBBF00100A4B1A6812F4403FD0
:1044500009D0186800F44030B0F5803F06D11B69E0
:10446000B0FBF3F070474FF4E100F8E76FF0100095
:10447000704700BF0014084008B5134B984207D19D
:104480000B20FEF749FC0920FEF7F6FA002008BDD4
:104490000E4B984204D10C20FEF73EFC0A20F3E7B5
:1044A0000B4B984204D11C20FEF736FC2120EBE791
:1044B000084B984204D14420FEF72EFC4420E3E749
:1044C0006FF00200E3E700BF00200440003004402A
:1044D000004004400014084070B504460E461546DE
:1044E000FFF7CAFF90BB022D14D0042D02D1062085
:1044F000FEF722FB164B9C420ED11648FEF774FCC9
:104500000920FEF7DBFA2A4631462046BDE8704016
:1045100000F0C0B80520EBE70F4B9C4204D10F48D8
:10452000FEF762FC0A20ECE70D4B9C4204D10D48DB
:10453000FEF75AFC2120E4E70B4B9C4204D10B48C8
:10454000FEF752FC4420DCE76FF0020070BD00BFB4
:10455000002004407CC000100030044088C00010DF
:104560000040044094C0001000140840A0C0001097
:1045700038B5304B9842044653D003F580539842E7
:104580004FD003F5805398424BD02B48844205D13D
:104590000523022A636104D0042A20D06FF00200B0
:1045A0001CE023682360B1F5E10F38D84FF4E10334
:1045B000B3FBF1F301FB03F2C2F5E102B2EB510FE1
:1045C00000D901330361FFF73FFF002806DD2368B0
:1045D00043F40043236023681B03FCD538BDB1F5C9
:1045E000165F24D8236843F480332360236843F4A0
:1045F000001323600DD04FF48033B1F5166FB3FB79
:10460000F1F301FB03F2C2F5803205D900254561C3
:10461000D4E707230022F9E701256561CEE70023EF
:10462000CFE7042ABAD0204600F068F8CDE76FF053
:104630001000D3E700200440001408400A4B9842C1
:104640000DD003F58053984209D003F5805398426A
:1046500005D003F57533984203D1FFF7F5BE00F09E
:104660009FB86FF0020070470020044000F0D6B8F9
:1046700000F0F4B800F014B900F05CB900F076B9BD
:1046800000F014BA00F01EBA00F08EB900F090B934
:1046900000F094B9184B984270B504460D46164682
:1046A0000BD003F58053984207D003F5805398420E
:1046B00003D003F5753398421BD101212046FFF743
:1046C000E7FFA8B908212046FFF7D0FF80B90146CF
:1046D0002046FFF7CFFF58B901462046FFF7C8FF35
:1046E00030B9324629462046FFF742FF00EAE07023
:1046F00070BD6FF00200FBE700200440254B98429C
:1047000010B40BD003F58053984207D003F58053C3
:10471000984203D003F57533984235D105234361A0
:10472000032A31D8DFE802F002131A271A4B1B685C
:104730005B08B3FBF1F201FB123312B1B3EB510F83
:1047400000D901325DF8044B0261FFF777BF0368BF
:1047500043F4803303606FF00203EAE704684FF428
:10476000E102B2FBF1F201FB02F3C3F5E10344F411
:1047700000340460E1E7094B0468B3FBF1F244F450
:10478000403401FB1233F4E76FF002005DF8044B94
:10479000704700BF00200440080000200048E801E6
:1047A0001B4B98420BD003F58053984207D003F57A
:1047B0008053984203D003F57533984224D103689F
:1047C00003F44033B3F5803F18D0036813F4403F3F
:1047D00006D1104B1B685B080069B3FBF0F0704713
:1047E000036803F44033B3F5003F0AD0036803F4D1
:1047F0004033B3F5403F07D1074BEDE76FF00203BD
:10480000EAE74FF4E103E7E76FF00200704700BF0B
:1048100000200440080000200048E8010E4B9842A8
:104820000BD003F58053984207D003F5805398428C
:1048300003D003F5753398420AD10539032907D807
:10484000036823F4406343EA81210160002070473C
:104850006FF00200704700BF002004400F4B9842E9
:104860000BD003F58053984207D003F5805398424C
:1048700003D003F57533984202D121B1012908D044
:104880006FF002007047036823F480530360002038
:104890007047036843F48053F8E700BF00200440EA
:1048A000234B98420BD003F58053984207D003F571
:1048B0008053984203D003F57533984234D10429CC
:1048C00032D8DFE801F0030915212900036823F03D
:1048D0001003036000207047036843F01003036077
:1048E000036823F020030360036823F04003F0E72C
:1048F000036843F010030360036823F020030360A0
:10490000036843F04003E4E7036843F010030360E7
:10491000036843F02003E6E7036843F010030360F5
:10492000036843F02003EAE76FF00200704700BF1E
:10493000002004400C4B98420BD003F58053984262
:1049400007D003F58053984203D003F5753398429E
:1049500004D14368DB0604D4006A70476FF002009C
:1049600070476FF00C007047002004400D4B9842D8
:104970000BD003F58053984207D003F5805398423B
:1049800003D003F57533984206D1436813F08003D2
:1049900005D10162184670476FF0020070476FF052
:1049A0000B007047002004404068C0F303207047AC
:1049B0004068C0F30330C0F1080070470D4B9842C7
:1049C0000BD003F58053984207D003F580539842EB
:1049D00003D003F57533984209D14B1E072B06D837
:1049E000036823F00F0319430160002070476FF044
:1049F0000200704700200440BFF35F8F0023036074
:104A00007047000010B5064C217831B905484FF4C5
:104A1000007200F0EBFB01232370002010BD00BFEB
:104A2000341A002034160020032870B5044615D926
:104A3000164917485A22FDF7B5FA00263046FEF708
:104A4000CDFA014605463046FEF7C6FA114E124829
:104A500006EBC41600EBC4146DB970BD38B1012863
:104A600007D00E4E0E4B022818BF1E46E6E70D4E2D
:104A7000E4E70D4EE2E7EB0703D523680BB130689E
:104A800098476D0804360434E6E700BFACC0001058
:104A9000F3C0001034180020341600200004084031
:104AA00000060840008000400090004010B5044619
:104AB0002046FFF7E9FD0028FAD02046BDE8104067
:104AC000FFF7DABD13B5044620460191FFF7DEFD7E
:104AD00001990028F8D0204602B0BDE81040FFF749
:104AE000CDBD0000014B1868704700BF10000020CA
:104AF00070B50D4E0D4D761BB61006D0002455F83E
:104B0000043B01349847A642F9D1094E094D761B62
:104B100007F002FDB61006D0002455F8043B01341E
:104B20009847A642F9D170BDC0090020C0090020F5
:104B3000C8090020C0090020024B0146186800F097
:104B40000BB800BF10000020024B0146186803F0AC
:104B500019BD00BF100000202DE9F04F01F10B0638
:104B6000162E83B0044624D8102900F2BA8000F033
:104B70008FFB102618220220B54F3A44A2F10801FB
:104B800053688B4200F0BA805A68D96822F0030259
:104B90001A449D68E9608D60516841F0010120462A
:104BA000516003F1080500F079FB284603B0BDE829
:104BB000F08F36F0070600F19480B14200F2918048
:104BC00000F066FBB6F5FC7FC0F09A81730A00F036
:104BD0008F80042B00F26F81B30903F1390003F1D8
:104BE000380CC3009A4F3B44A3F108055B689D4213
:104BF00006D10CE0002980F22781DB689D4206D0B7
:104C00005A6822F00302911B0F29F3DD60463D69CB
:104C1000DFF850C265457CD06A6822F00302931B1E
:104C20000F2B00F37B81002BC7E904CC80F26C8151
:104C3000B2F5007F80F01A81D308796801334FEA1A
:104C4000521E012202FA0EF20A4357F833E0C5F869
:104C500008E007EBC3010839E9607A6047F8335090
:104C6000CEF80C50831001219940914257D811423F
:104C700006D120F003004900114200F10400FAD0EF
:104C800007EBC0094D468646D5F80C80454508D14E
:104C90001DE1002B80F22481D8F80C80454500F0FE
:104CA0001681D8F8042022F00302931B0F2BF0DDAD
:104CB0002046D8E9025408EB060146F00106C8F880
:104CC0000460EC60A56043F00104C7E90411C1E988
:104CD00002CC4C6048F8023000F0E0FA08F1080518
:104CE00002E00C2323600025284603B0BDE8F08FC6
:104CF0004FF4007340204FF03F0C73E7D3689A42A3
:104D000008BF02307FF440AF3D69DFF858C1654508
:104D100082D17A688310012199409142A7D9BD6858
:104D20006B6823F003094E4503D8A9EB06030F2B4C
:104D30007ADCDFF834B1474BDBF800201B68013226
:104D4000334405EB090A00F0338103F580530F3338
:104D500023F47F6828F00F084146204600F00EFB40
:104D6000411C024600F0F380824500F2EE803A4B8F
:104D7000196841441960084600F04E81DBF80010C4
:104D8000019301311BBFA2EB0A0A5044CBF800206B
:104D9000186012F0070B00F01781CBF108010A44EC
:104DA000CBF5805190440831A1EB0801C1F30B0A07
:104DB00051462046009200F0E1FA421CDDE9002352
:104DC00000F04F81801A00EB0A081968BA6048F0B9
:104DD00001005144BD425060196000F02981B9F1D1
:104DE0000F0F40F227816868A9F10C0C2CF0070C1A
:104DF00000F0010040EA0C0068604FF0050E05EB82
:104E00000C00BCF10F0FC0E901EE00F232815068D6
:104E10001546124B1A688A4238BF1960104B1A683F
:104E20008A4238BF196094E0AA1943F0010346F0A2
:104E300001066E602046BA60536000F02FFA083514
:104E4000284603B0BDE8F08FD9681A44A1E600BF38
:104E500040040020681A0020381A0020601A002040
:104E6000641A00204804002048080020B2F5206F92
:104E70004FEA522363D3142B00F2B78003F15C0195
:104E8000C9005B3307EB010E7958AEF1080E8E4571
:104E900000F091804B6823F00303934202D98968A4
:104EA0008E45F7D1D1F80CE07A68C5E9021ECEF83C
:104EB0000850CD60D6E6142B59D9542B00F29D80B2
:104EC000330B03F16F0003F16E0CC3008AE60EF1A1
:104ED000010E1EF0030F05F108057FF4D5AE51E079
:104EE000424445465368D8F80C1043F00103536020
:104EF00055F8083F2046D9608B6000F0CFF9F3E603
:104F0000F00806F1080237E62A442046536843F0C9
:104F100001035360083500F0C1F9E5E6A919204600
:104F200046F0010643F001046E60C7E90411C1E9CF
:104F300002CC4C60AB5000F0B1F90835D4E69309CF
:104F400003F13901C90038339CE7BD425FD0BD6829
:104F5000686820F003084645A8EB060302D80F2B2B
:104F60003FF762AF204600F099F90025BCE603F157
:104F70005C0003F15B0CC30034E659F808394B457B
:104F800040F0968010F0030F00F1FF30F5D17B6800
:104F900023EA01037B60490099423FF6C0AE19B98C
:104FA000BDE649000EF1040E1942FAD0704667E6DC
:104FB00003F11008D0E69A104FF001087B6808FA58
:104FC00002F21A437A6070E702EB08014942C1F32A
:104FD0000B0A51462046009200F0D0F9431CDDE94F
:104FE00000237FF4EFAEDA46EFE6542B25D8130BFF
:104FF00003F16F01C9006E3344E7B3F5AA7F25D8EA
:10500000F30B03F1780003F1770CC300EAE5294BB9
:10501000186840441860B1E6CAF30B0CBCF1000FED
:105020007FF4ACAEBD68C84448F001006860F0E6AB
:105030001546EEE60123536094E7B3F5AA7F23D823
:10504000D30B03F17801C90077331BE740F25452C8
:10505000934223D8B30C03F17D0003F17C0CC30011
:10506000C0E5ABF1080BD844A8EB02084FF0000AEA
:10507000ABE605F108012046009303F083FABD6812
:10508000009B68681968C4E640F254518B420BD803
:10509000930C03F17D01C9007C33F3E64FF47E737A
:1050A0007F204FF07E0C9DE54FF47E717E23E9E674
:1050B0007B6870E7381A0020844641EA000313F049
:1050C00003036DD1403A41D351F8043B40F8043B0F
:1050D00051F8043B40F8043B51F8043B40F8043BD2
:1050E00051F8043B40F8043B51F8043B40F8043BC2
:1050F00051F8043B40F8043B51F8043B40F8043BB2
:1051000051F8043B40F8043B51F8043B40F8043BA1
:1051100051F8043B40F8043B51F8043B40F8043B91
:1051200051F8043B40F8043B51F8043B40F8043B81
:1051300051F8043B40F8043B51F8043B40F8043B71
:1051400051F8043B40F8043B403ABDD2303211D311
:1051500051F8043B40F8043B51F8043B40F8043B51
:1051600051F8043B40F8043B51F8043B40F8043B41
:10517000103AEDD20C3205D351F8043B40F8043B11
:10518000043AF9D2043208D0D2071CBF11F8013B0F
:1051900000F8013B01D30B8803806046704700BFD5
:1051A000082A13D38B078DD010F003038AD0C3F1E4
:1051B0000403D21ADB071CBF11F8013B00F8013BC6
:1051C00080D331F8023B20F8023B7BE7043AD9D385
:1051D000013A11F8013B00F8013BF9D20B7803705A
:1051E0004B7843708B78837060467047830730B587
:1051F00048D0541E002A3FD0CAB2034601E0013C09
:105200003AD303F8012B9D07F9D1032C2DD9CDB248
:1052100045EA05250F2C45EA054536D9A4F11002CB
:1052200022F00F0C03F1200EE6444FEA121C03F1AA
:10523000100242E9045542E9025510327245F8D194
:105240000CF1010214F00C0F03EB021204F00F0C2E
:1052500013D0ACF1040323F003030433134442F8E6
:10526000045B9342FBD10CF003042CB1CAB21C4482
:1052700003F8012B9C42FBD130BD64461346002C41
:10528000F4D1F9E703461446BFE71A46A446E0E71F
:10529000014803F021BC00BF701A0020014803F050
:1052A0001DBC00BF701A00200FB400B5074983B0C1
:1052B00004AB086853F8042B8168019300F0F0F800
:1052C00003B05DF804EB04B0704700BF100000208D
:1052D00070B5054688B008460C4600F071F8224EBD
:1052E000AA6B059001214318CDE9066104A80221AB
:1052F00004940393AC680190029122B3636E13F09F
:10530000010FB4F90C309AB201D1980525D591045A
:1053100006D4626E43F4005322F40052A381626605
:10532000284601AA214603F033FA636E002814BF11
:105330004FF0FF350A25DA0702D4A3899B0506D56D
:10534000284608B070BD284603F024F8D6E7A06DC3
:1053500003F0C4FB284608B070BDA06D03F0BCFB91
:10536000B4F90C309AB2D2E718C10010024B0146D2
:105370001868FFF7ADBF00BF1000002038B5074D1B
:105380000022044608462A60FDF77EF9431C00D03F
:1053900038BD2B68002BFBD0236038BD7C1A002061
:1053A00000000000000000000000000000000000FD
:1053B00000000000000000000000000000000000ED
:1053C00090F800F06DE9024520F007016FF0000C45
:1053D00010F0070491F820F040F049804FF00004ED
:1053E0006FF00700D1E9002391F840F000F10800C8
:1053F00082FA4CF2A4FA8CF283FA4CF3A2FA8CF300
:105400004BBBD1E9022382FA4CF200F10800A4FA66
:105410008CF283FA4CF3A2FA8CF3E3B9D1E90423BA
:1054200082FA4CF200F10800A4FA8CF283FA4CF3F1
:10543000A2FA8CF37BB9D1E9062301F1200182FAAB
:105440004CF200F10800A4FA8CF283FA4CF3A2FAB1
:105450008CF3002BC6D0002A04BF04301A4612BABF
:10546000B2FA82F2FDE8024500EBD2007047D1E9C2
:10547000002304F00305C4F100004FEAC50514F051
:10548000040F91F840F00CFA05F562EA05021CBF22
:1054900063EA050362464FF00004A9E7000000003C
:1054A0002DE9F04F2DED0A8BD3B01C4609EE101AF2
:1054B000914609EE900A054603F006FB0368179330
:1054C00018460D94FFF77CFF16901DB1AB6B002BB7
:1054D00000F0488219EE102A536EDB0740F1478135
:1054E000B2F90C309AB2960409D419EE101A43F4AA
:1054F00000538B819AB24B6E23F400534B66150711
:1055000040F1CC8019EE103A1B69002B00F0C680E8
:1055100002F01A030A2B00F0D2804D469FED9C7BCF
:105520002B78002429AACDE92744CDE91944CDE9F7
:105530001B448DED147B19EE909A1294269290469E
:1055400018940A94002B00F0B081AB4604E01BF8DD
:10555000013F002B00F0CD80252BF8D1BBEB0506D9
:1055600040F0CB809BF80030002B00F09E810023A0
:105570004FF0FF329BF801708DF87B3009930BF1EF
:10558000010B08929A462B2420210BF1010BA7F165
:1055900020035A2B00F20081DFE813F00A03FE001B
:1055A000FE000503FE00FE00FE006A00FE00FE0095
:1055B00076029E02FE008102A802FE00A3025B00AA
:1055C0005B005B005B005B005B005B005B005B0003
:1055D000FE00FE00FE00FE00FE00FE00FE008E014A
:1055E000FE001602ED018E018E018E01FE00FE000E
:1055F000FE00FE000003FE00FE004502FE00FE006D
:10560000FE002002FE00C202FE00FE009A07FE001D
:10561000FE00FE00FE00FE00FE00FE00FE008E0109
:10562000FE001602EF018E018E018E01E602EF01EF
:10563000E801FE00F302FE0086024702D402E80100
:10564000FE0020027D007607FE00FE007A07FE00C5
:105650007D00A7F1300300221BF8017B02EB8202E0
:1056600003EB4202A7F13003092BF5D909928EE72B
:10567000484603F029FA43681B931846FFF7A0FE3B
:105680001C900646484603F01FFA836819932021B0
:10569000002E40F0EA869BF8007076E719EE101AAB
:1056A00019EE900A19EE105A01F000FD002841F0A1
:1056B0002483AA8902F01A030A2B7FF42EAF19EE75
:1056C000101AB1F90E30002BFFF627AF4B6ED90739
:1056D00002D4920541F1568119EE101A19EE900A82
:1056E00023464A4653B0BDEC0A8BBDE8F04F01F0AB
:1056F0009DBCBBEB050600F0D880289B3344289363
:10570000279B0133072BC8E90056279305DC08F1D6
:1057100008080A9B33440A9324E719EE101A26AAB4
:10572000484604F0A3F990B90DF1A408F1E719EE89
:10573000101A26AA484604F099F9002800F0A6801D
:105740000C9B23B119EE900A194602F01BFF19EECB
:10575000102A536ED80740F1FA8093895A0601F156
:10576000D5820A9853B0BDEC0A8BBDE8F08FB2F930
:105770000C309F059AB23FF5B6AE19EE105AA86DDF
:1057800003F0AAF9B5F90C309AB2ACE6AFF3008099
:105790000000000000000000002F00F086800023C1
:1057A0008DF8E4708DF87B300122CDE90B23079250
:1057B000089310931393119339AD1AF002020E92CD
:1057C00002D0079A023207921AF084020F9205D192
:1057D000099A0799561A002E00F36883289C8BB10A
:1057E000279B0DF17B0201330134C8F80020072B01
:1057F0004FF0010228942793C8F8042000F39F83F8
:1058000008F108080E9B83B1279B1FAA01330234BD
:10581000C8F80020072B4FF0020228942793C8F8FD
:10582000042000F3998308F108080F9B802B00F0F7
:105830006A82089B0B9A9E1A002E00F3AB821AF420
:10584000807F40F006820B9BC8F804301C44279BE5
:10585000C8F800500133072B2894279300F31983CD
:1058600008F108081AF0040F05D0099B079A9D1A41
:10587000002D00F38583DDE9092307998A42ACBF37
:105880009B185B180A93002C7FF451AF00232793D9
:105890000C9B1BB10C99484602F074FE0DF1A40854
:1058A0005D462B78002B7FF450AE289B002B41F0F7
:1058B0001882002327934AE70D9B073323F0070341
:1058C000B3EC027B8DED147BDDE914120D9322F015
:1058D00000430AEE101A0AEE903A4FF0FF32B0EE93
:1058E0004A8AF0EE6A8AB74B51EC180B05F07EFF3E
:1058F000002840F0E884B34B51EC180B4FF0FF3216
:1059000005F056FF002840F0DE84DDE91401002296
:10591000002305F043FF002840F067879DF87B30A7
:10592000A94DAA4A2AF0800A0321472FC8BF15466D
:1059300000220C9207910B910892109213921192EF
:10594000002B3FF43AAF079A0132079235E793896B
:1059500099053FF503AF19EE104A906D03F0BEF8BC
:10596000A389FBE6284602F015FDB3E59BF800701D
:105970004AF0200A09E64AF0100A1AF0200F0D9B9F
:1059800000F04084073323F007031A465B6852F89F
:10599000084B0D921E46002BC0F24384089B013336
:1059A00000F0BC822AF08003079354EA060340F01B
:1059B000B782089B002B40F0B882DDF81CA00023C2
:1059C00008930B9352AD1FE10D9A002352F8041B6C
:1059D0008DF87B308DF8E4100D92E5E60D9C54F8BF
:1059E000045B00268DF87B60002D00F09085089BFD
:1059F0005A1C00F051861A463146284603F0E0F85A
:105A00000C90002801F02C810C9B0896591B0B91DF
:105A100021EAE1719DF87B300D9407910C96109668
:105A2000139611968CE74AF0100A1AF0200600F03F
:105A3000C9830D9B073323F007035E6853F8084BB7
:105A40000D932AF480630793002300228DF87B20B6
:105A5000089A551C00F0C080079921F0800A54EA8A
:105A6000060140F0B780002A40F00786002BA6D13F
:105A7000079B13F001030B9300F0148430238DF87F
:105A800047310DF24715BFE00D9B53F8042B0992E7
:105A9000002A80F2D583099A0D93524209929BF80D
:105AA00000704AF0040A70E51AF0200F40F0D2842A
:105AB0001AF0100F40F0E7851AF0400F40F0A98669
:105AC0001AF4007F00F0DF850D9B0A9953F8042B30
:105AD0000D9311705D46E4E69BF800708DF87B40F5
